{
  "contractName": "Storage",
  "abi": [
    {
      "anonymous": false,
      "inputs": [
        {
          "indexed": false,
          "internalType": "uint256",
          "name": "fileId",
          "type": "uint256"
        },
        {
          "indexed": false,
          "internalType": "uint256",
          "name": "deleteTime",
          "type": "uint256"
        },
        {
          "indexed": true,
          "internalType": "address",
          "name": "deleter",
          "type": "address"
        }
      ],
      "name": "FileDeleted",
      "type": "event"
    },
    {
      "anonymous": false,
      "inputs": [
        {
          "indexed": false,
          "internalType": "uint256",
          "name": "fileId",
          "type": "uint256"
        },
        {
          "indexed": false,
          "internalType": "string",
          "name": "fileName",
          "type": "string"
        },
        {
          "indexed": false,
          "internalType": "string",
          "name": "fileDescription",
          "type": "string"
        },
        {
          "indexed": false,
          "internalType": "uint256",
          "name": "updatedTime",
          "type": "uint256"
        },
        {
          "indexed": true,
          "internalType": "address",
          "name": "updater",
          "type": "address"
        }
      ],
      "name": "FileUpdated",
      "type": "event"
    },
    {
      "anonymous": false,
      "inputs": [
        {
          "indexed": false,
          "internalType": "uint256",
          "name": "fileId",
          "type": "uint256"
        },
        {
          "indexed": false,
          "internalType": "string",
          "name": "fileHash",
          "type": "string"
        },
        {
          "indexed": false,
          "internalType": "uint256",
          "name": "fileSize",
          "type": "uint256"
        },
        {
          "indexed": false,
          "internalType": "string",
          "name": "fileType",
          "type": "string"
        },
        {
          "indexed": false,
          "internalType": "string",
          "name": "fileName",
          "type": "string"
        },
        {
          "indexed": false,
          "internalType": "string",
          "name": "fileDescription",
          "type": "string"
        },
        {
          "indexed": false,
          "internalType": "uint256",
          "name": "uploadTime",
          "type": "uint256"
        },
        {
          "indexed": true,
          "internalType": "address",
          "name": "uploader",
          "type": "address"
        }
      ],
      "name": "FileUploaded",
      "type": "event"
    },
    {
      "inputs": [],
      "name": "fileIndex",
      "outputs": [
        {
          "internalType": "uint256",
          "name": "",
          "type": "uint256"
        }
      ],
      "stateMutability": "view",
      "type": "function",
      "constant": true
    },
    {
      "inputs": [
        {
          "internalType": "uint256",
          "name": "",
          "type": "uint256"
        }
      ],
      "name": "files",
      "outputs": [
        {
          "internalType": "uint256",
          "name": "fileId",
          "type": "uint256"
        },
        {
          "internalType": "string",
          "name": "fileHash",
          "type": "string"
        },
        {
          "internalType": "uint256",
          "name": "fileSize",
          "type": "uint256"
        },
        {
          "internalType": "string",
          "name": "fileType",
          "type": "string"
        },
        {
          "internalType": "string",
          "name": "fileName",
          "type": "string"
        },
        {
          "internalType": "string",
          "name": "fileDescription",
          "type": "string"
        },
        {
          "internalType": "uint256",
          "name": "uploadTime",
          "type": "uint256"
        },
        {
          "internalType": "address",
          "name": "uploader",
          "type": "address"
        }
      ],
      "stateMutability": "view",
      "type": "function",
      "constant": true
    },
    {
      "inputs": [],
      "name": "totalFileCount",
      "outputs": [
        {
          "internalType": "uint256",
          "name": "",
          "type": "uint256"
        }
      ],
      "stateMutability": "view",
      "type": "function",
      "constant": true
    },
    {
      "inputs": [
        {
          "internalType": "string",
          "name": "_fileHash",
          "type": "string"
        },
        {
          "internalType": "uint256",
          "name": "_fileSize",
          "type": "uint256"
        },
        {
          "internalType": "string",
          "name": "_fileType",
          "type": "string"
        },
        {
          "internalType": "string",
          "name": "_fileName",
          "type": "string"
        },
        {
          "internalType": "string",
          "name": "_fileDescription",
          "type": "string"
        }
      ],
      "name": "uploadFile",
      "outputs": [],
      "stateMutability": "nonpayable",
      "type": "function"
    },
    {
      "inputs": [
        {
          "internalType": "uint256",
          "name": "_fileId",
          "type": "uint256"
        },
        {
          "internalType": "string",
          "name": "_fileDescription",
          "type": "string"
        }
      ],
      "name": "updateFile",
      "outputs": [
        {
          "internalType": "bool",
          "name": "success",
          "type": "bool"
        }
      ],
      "stateMutability": "nonpayable",
      "type": "function"
    },
    {
      "inputs": [
        {
          "internalType": "uint256",
          "name": "_fileId",
          "type": "uint256"
        }
      ],
      "name": "deleteFile",
      "outputs": [
        {
          "internalType": "bool",
          "name": "success",
          "type": "bool"
        }
      ],
      "stateMutability": "nonpayable",
      "type": "function"
    },
    {
      "inputs": [
        {
          "internalType": "uint256",
          "name": "_fileId",
          "type": "uint256"
        }
      ],
      "name": "fileExist",
      "outputs": [
        {
          "internalType": "bool",
          "name": "success",
          "type": "bool"
        }
      ],
      "stateMutability": "view",
      "type": "function",
      "constant": true
    }
  ],
  "bytecode": "0x60806040526000600155600060025534801561001a57600080fd5b506118fa8061002a6000396000f3fe608060405234801561001057600080fd5b506004361061007d5760003560e01c8063b1cfe1511161005b578063b1cfe15114610199578063c5b42006146101dd578063e82d9d3314610221578063f4c714b4146104ab5761007d565b806364069d1c146100825780637f9d4b4a1461015d578063a1b4dce71461017b575b600080fd5b6101456004803603604081101561009857600080fd5b8101908080359060200190929190803590602001906401000000008111156100bf57600080fd5b8201836020820111156100d157600080fd5b803590602001918460018302840111640100000000831117156100f357600080fd5b91908080601f016020809104026020016040519081016040528093929190818152602001838380828437600081840152601f19601f8201169050808301925050505050505091929192905050506106c8565b60405180821515815260200191505060405180910390f35b610165610a41565b6040518082815260200191505060405180910390f35b610183610a47565b6040518082815260200191505060405180910390f35b6101c5600480360360208110156101af57600080fd5b8101908080359060200190929190505050610a4d565b60405180821515815260200191505060405180910390f35b610209600480360360208110156101f357600080fd5b8101908080359060200190929190505050610ab7565b60405180821515815260200191505060405180910390f35b6104a9600480360360a081101561023757600080fd5b810190808035906020019064010000000081111561025457600080fd5b82018360208201111561026657600080fd5b8035906020019184600183028401116401000000008311171561028857600080fd5b91908080601f016020809104026020016040519081016040528093929190818152602001838380828437600081840152601f19601f82011690508083019250505050505050919291929080359060200190929190803590602001906401000000008111156102f557600080fd5b82018360208201111561030757600080fd5b8035906020019184600183028401116401000000008311171561032957600080fd5b91908080601f016020809104026020016040519081016040528093929190818152602001838380828437600081840152601f19601f8201169050808301925050505050505091929192908035906020019064010000000081111561038c57600080fd5b82018360208201111561039e57600080fd5b803590602001918460018302840111640100000000831117156103c057600080fd5b91908080601f016020809104026020016040519081016040528093929190818152602001838380828437600081840152601f19601f8201169050808301925050505050505091929192908035906020019064010000000081111561042357600080fd5b82018360208201111561043557600080fd5b8035906020019184600183028401116401000000008311171561045757600080fd5b91908080601f016020809104026020016040519081016040528093929190818152602001838380828437600081840152601f19601f820116905080830192505050505050509192919290505050610f93565b005b6104d7600480360360208110156104c157600080fd5b81019080803590602001909291905050506113b5565b60405180898152602001806020018881526020018060200180602001806020018781526020018673ffffffffffffffffffffffffffffffffffffffff16815260200185810385528c818151815260200191508051906020019080838360005b83811015610551578082015181840152602081019050610536565b50505050905090810190601f16801561057e5780820380516001836020036101000a031916815260200191505b5085810384528a818151815260200191508051906020019080838360005b838110156105b757808201518184015260208101905061059c565b50505050905090810190601f1680156105e45780820380516001836020036101000a031916815260200191505b50858103835289818151815260200191508051906020019080838360005b8381101561061d578082015181840152602081019050610602565b50505050905090810190601f16801561064a5780820380516001836020036101000a031916815260200191505b50858103825288818151815260200191508051906020019080838360005b83811015610683578082015181840152602081019050610668565b50505050905090810190601f1680156106b05780820380516001836020036101000a031916815260200191505b509c5050505050505050505050505060405180910390f35b6000808251116106d757600080fd5b600073ffffffffffffffffffffffffffffffffffffffff163373ffffffffffffffffffffffffffffffffffffffff16141561071157600080fd5b61071a83610a4d565b61078c576040517f08c379a00000000000000000000000000000000000000000000000000000000081526004018080602001828103825260188152602001807f546869732066696c6520646f6573206e6f74206578697374000000000000000081525060200191505060405180910390fd5b60005b600154811015610a355783600082815481106107a757fe5b9060005260206000209060080201600001541415610a28573373ffffffffffffffffffffffffffffffffffffffff16600082815481106107e357fe5b906000526020600020906008020160070160009054906101000a900473ffffffffffffffffffffffffffffffffffffffff1673ffffffffffffffffffffffffffffffffffffffff1614610881576040517f08c379a000000000000000000000000000000000000000000000000000000000815260040180806020018281038252602a81526020018061189b602a913960400191505060405180910390fd5b826000828154811061088f57fe5b906000526020600020906008020160050190805190602001906108b392919061168d565b503373ffffffffffffffffffffffffffffffffffffffff167f5ee1df19a0ea3926b45851278049eea1c905be755e49ca1f826ed1165576832a85600084815481106108fa57fe5b906000526020600020906008020160040186426040518085815260200180602001806020018481526020018381038352868181546001816001161561010002031660029004815260200191508054600181600116156101000203166002900480156109a65780601f1061097b576101008083540402835291602001916109a6565b820191906000526020600020905b81548152906001019060200180831161098957829003601f168201915b5050838103825285818151815260200191508051906020019080838360005b838110156109e05780820151818401526020810190506109c5565b50505050905090810190601f168015610a0d5780820380516001836020036101000a031916815260200191505b50965050505050505060405180910390a26001915050610a3b565b808060010191505061078f565b50600090505b92915050565b60015481565b60025481565b6000806001541415610a625760009050610ab2565b60005b600154811015610aac578260008281548110610a7d57fe5b9060005260206000209060080201600001541415610a9f576001915050610ab2565b8080600101915050610a65565b50600090505b919050565b60008073ffffffffffffffffffffffffffffffffffffffff163373ffffffffffffffffffffffffffffffffffffffff161415610af257600080fd5b610afb82610a4d565b610b6d576040517f08c379a00000000000000000000000000000000000000000000000000000000081526004018080602001828103825260188152602001807f546869732066696c6520646f6573206e6f74206578697374000000000000000081525060200191505060405180910390fd5b60005b600154811015610f88578260008281548110610b8857fe5b9060005260206000209060080201600001541415610f7b573373ffffffffffffffffffffffffffffffffffffffff1660008281548110610bc457fe5b906000526020600020906008020160070160009054906101000a900473ffffffffffffffffffffffffffffffffffffffff1673ffffffffffffffffffffffffffffffffffffffff1614610c62576040517f08c379a000000000000000000000000000000000000000000000000000000000815260040180806020018281038252602a815260200180611871602a913960400191505060405180910390fd5b6000600180540381548110610c7357fe5b906000526020600020906008020160008281548110610c8e57fe5b90600052602060002090600802016000820154816000015560018201816001019080546001816001161561010002031660029004610ccd92919061171b565b506002820154816002015560038201816003019080546001816001161561010002031660029004610cff92919061171b565b5060048201816004019080546001816001161561010002031660029004610d2792919061171b565b5060058201816005019080546001816001161561010002031660029004610d4f92919061171b565b50600682015481600601556007820160009054906101000a900473ffffffffffffffffffffffffffffffffffffffff168160070160006101000a81548173ffffffffffffffffffffffffffffffffffffffff021916908373ffffffffffffffffffffffffffffffffffffffff1602179055509050506000600180540381548110610dd557fe5b9060005260206000209060080201600080820160009055600182016000610dfc91906117b0565b6002820160009055600382016000610e1491906117b0565b600482016000610e2491906117b0565b600582016000610e3491906117b0565b60068201600090556007820160006101000a81549073ffffffffffffffffffffffffffffffffffffffff02191690555050600160008154809291906001900391905055506000805480610e8357fe5b6001900381819060005260206000209060080201600080820160009055600182016000610eb091906117b0565b6002820160009055600382016000610ec891906117b0565b600482016000610ed891906117b0565b600582016000610ee891906117b0565b60068201600090556007820160006101000a81549073ffffffffffffffffffffffffffffffffffffffff0219169055505090553373ffffffffffffffffffffffffffffffffffffffff167f9f2196b5c7b05735494c25889975de0dfbc332e8c819eae659cbd64eba2ddfcc8442604051808381526020018281526020019250505060405180910390a26001915050610f8e565b8080600101915050610b70565b50600090505b919050565b6000855111610fa157600080fd5b6000835111610faf57600080fd5b6000815111610fbd57600080fd5b6000825111610fcb57600080fd5b600073ffffffffffffffffffffffffffffffffffffffff163373ffffffffffffffffffffffffffffffffffffffff16141561100557600080fd5b6000841161101257600080fd5b60026000815480929190600101919050555061102c6117f8565b60405180610100016040528060025481526020018781526020018681526020018581526020018481526020018381526020014281526020013373ffffffffffffffffffffffffffffffffffffffff16815250905060008190806001815401808255809150506001900390600052602060002090600802016000909190919091506000820151816000015560208201518160010190805190602001906110d292919061168d565b506040820151816002015560608201518160030190805190602001906110f992919061168d565b50608082015181600401908051906020019061111692919061168d565b5060a082015181600501908051906020019061113392919061168d565b5060c0820151816006015560e08201518160070160006101000a81548173ffffffffffffffffffffffffffffffffffffffff021916908373ffffffffffffffffffffffffffffffffffffffff16021790555050506001600081548092919060010191905055503373ffffffffffffffffffffffffffffffffffffffff167f6e95bbaa37a5fdec42a312e049dea2fe6160ebe659214d3409b4f91f164c2f52600254888888888842604051808881526020018060200187815260200180602001806020018060200186815260200185810385528b818151815260200191508051906020019080838360005b8381101561123857808201518184015260208101905061121d565b50505050905090810190601f1680156112655780820380516001836020036101000a031916815260200191505b50858103845289818151815260200191508051906020019080838360005b8381101561129e578082015181840152602081019050611283565b50505050905090810190601f1680156112cb5780820380516001836020036101000a031916815260200191505b50858103835288818151815260200191508051906020019080838360005b838110156113045780820151818401526020810190506112e9565b50505050905090810190601f1680156113315780820380516001836020036101000a031916815260200191505b50858103825287818151815260200191508051906020019080838360005b8381101561136a57808201518184015260208101905061134f565b50505050905090810190601f1680156113975780820380516001836020036101000a031916815260200191505b509b50505050505050505050505060405180910390a2505050505050565b600081815481106113c557600080fd5b9060005260206000209060080201600091509050806000015490806001018054600181600116156101000203166002900480601f0160208091040260200160405190810160405280929190818152602001828054600181600116156101000203166002900480156114775780601f1061144c57610100808354040283529160200191611477565b820191906000526020600020905b81548152906001019060200180831161145a57829003601f168201915b505050505090806002015490806003018054600181600116156101000203166002900480601f01602080910402602001604051908101604052809291908181526020018280546001816001161561010002031660029004801561151b5780601f106114f05761010080835404028352916020019161151b565b820191906000526020600020905b8154815290600101906020018083116114fe57829003601f168201915b505050505090806004018054600181600116156101000203166002900480601f0160208091040260200160405190810160405280929190818152602001828054600181600116156101000203166002900480156115b95780601f1061158e576101008083540402835291602001916115b9565b820191906000526020600020905b81548152906001019060200180831161159c57829003601f168201915b505050505090806005018054600181600116156101000203166002900480601f0160208091040260200160405190810160405280929190818152602001828054600181600116156101000203166002900480156116575780601f1061162c57610100808354040283529160200191611657565b820191906000526020600020905b81548152906001019060200180831161163a57829003601f168201915b5050505050908060060154908060070160009054906101000a900473ffffffffffffffffffffffffffffffffffffffff16905088565b828054600181600116156101000203166002900490600052602060002090601f0160209004810192826116c3576000855561170a565b82601f106116dc57805160ff191683800117855561170a565b8280016001018555821561170a579182015b828111156117095782518255916020019190600101906116ee565b5b5090506117179190611853565b5090565b828054600181600116156101000203166002900490600052602060002090601f016020900481019282611751576000855561179f565b82601f10611762578054855561179f565b8280016001018555821561179f57600052602060002091601f016020900482015b8281111561179e578254825591600101919060010190611783565b5b5090506117ac9190611853565b5090565b50805460018160011615610100020316600290046000825580601f106117d657506117f5565b601f0160209004906000526020600020908101906117f49190611853565b5b50565b60405180610100016040528060008152602001606081526020016000815260200160608152602001606081526020016060815260200160008152602001600073ffffffffffffffffffffffffffffffffffffffff1681525090565b5b8082111561186c576000816000905550600101611854565b509056fe596f752063616e206e6f742064656c6574652066696c65732074686174206973206e6f7420796f757273596f752063616e206e6f74207570646174652066696c65732074686174206973206e6f7420796f757273a2646970667358221220b658abf80f53c6971c312f564a2880eb19878cad48fa45f2bfea7ce379fbf75c64736f6c63430007050033",
  "immutableReferences": {},
  "source": "// SPDX-License-Identifier: GPL-3.0\npragma solidity 0.7.5;\n\ncontract Storage {\n    struct File {\n        uint256 fileId;\n        string fileHash;\n        uint256 fileSize;\n        string fileType;\n        string fileName;\n        string fileDescription;\n        uint256 uploadTime;\n        address uploader;\n    }\n\n    File[] public files;\n\n    uint256 public totalFileCount = 0;\n\n    uint256 public fileIndex = 0;\n\n    event FileUploaded(\n        uint256 fileId,\n        string fileHash,\n        uint256 fileSize,\n        string fileType,\n        string fileName,\n        string fileDescription,\n        uint256 uploadTime,\n        address indexed uploader\n    );\n\n    event FileDeleted(\n        uint256 fileId,\n        uint256 deleteTime,\n        address indexed deleter\n    );\n\n    event FileUpdated(\n        uint256 fileId,\n        string fileName,\n        string fileDescription,\n        uint256 updatedTime,\n        address indexed updater\n    );\n\n    function uploadFile(\n        string memory _fileHash,\n        uint256 _fileSize,\n        string memory _fileType,\n        string memory _fileName,\n        string memory _fileDescription\n    ) external {\n        require(bytes(_fileHash).length > 0);\n        require(bytes(_fileType).length > 0);\n        require(bytes(_fileDescription).length > 0);\n        require(bytes(_fileName).length > 0);\n        require(msg.sender != address(0));\n        require(_fileSize > 0);\n\n        fileIndex++;\n\n        File memory newFile = File(\n            fileIndex,\n            _fileHash,\n            _fileSize,\n            _fileType,\n            _fileName,\n            _fileDescription,\n            block.timestamp,\n            msg.sender\n        );\n\n        files.push(newFile);\n\n        totalFileCount++;\n\n        emit FileUploaded(\n            fileIndex,\n            _fileHash,\n            _fileSize,\n            _fileType,\n            _fileName,\n            _fileDescription,\n            block.timestamp,\n            msg.sender\n        );\n    }\n\n    function updateFile(uint256 _fileId, string memory _fileDescription)\n        external\n        returns (bool success)\n    {\n        require(bytes(_fileDescription).length > 0);\n        require(msg.sender != address(0));\n        if (!fileExist(_fileId)) revert(\"This file does not exist\");\n\n        for (uint256 i = 0; i < totalFileCount; i++) {\n            if (files[i].fileId == _fileId) {\n                if (files[i].uploader != msg.sender)\n                    revert(\"You can not update files that is not yours\");\n                files[i].fileDescription = _fileDescription;\n\n                emit FileUpdated(\n                    _fileId,\n                    files[i].fileName,\n                    _fileDescription,\n                    block.timestamp,\n                    msg.sender\n                );\n\n                return true;\n            }\n        }\n        return false;\n    }\n\n    function deleteFile(uint256 _fileId) external returns (bool success) {\n        require(msg.sender != address(0));\n        if (!fileExist(_fileId)) revert(\"This file does not exist\");\n\n        for (uint256 i = 0; i < totalFileCount; i++) {\n            if (files[i].fileId == _fileId) {\n                if (files[i].uploader != msg.sender)\n                    revert(\"You can not delete files that is not yours\");\n                files[i] = files[totalFileCount - 1];\n                delete files[totalFileCount - 1];\n                totalFileCount--;\n                files.pop();\n                emit FileDeleted(_fileId, block.timestamp, msg.sender);\n                return true;\n            }\n        }\n        return false;\n    }\n\n    function fileExist(uint256 _fileId) public view returns (bool success) {\n        if (totalFileCount == 0) return false;\n\n        for (uint256 i = 0; i < totalFileCount; i++) {\n            if (files[i].fileId == _fileId) {\n                return true;\n            }\n        }\n        return false;\n    }\n}\n",
  "sourcePath": "/Users/Eugene/Documents/Dev/web/storage_block/src/contracts/Storage.sol",
  "compiler": {
    "name": "solc",
    "version": "0.7.5+commit.eb77ed08.Emscripten.clang"
  },
  "schemaVersion": "3.4.1",
  "updatedAt": "2021-11-17T07:00:53.010Z",
  "networkType": "ethereum",
  "devdoc": {
    "kind": "dev",
    "methods": {},
    "version": 1
  },
  "userdoc": {
    "kind": "user",
    "methods": {},
    "version": 1
  }
}