{
  "contractName": "Storage",
  "abi": [
    {
      "anonymous": false,
      "inputs": [
        {
          "indexed": false,
          "internalType": "uint256",
          "name": "fileId",
          "type": "uint256"
        },
        {
          "indexed": false,
          "internalType": "uint256",
          "name": "deleteTime",
          "type": "uint256"
        },
        {
          "indexed": true,
          "internalType": "address",
          "name": "deleter",
          "type": "address"
        }
      ],
      "name": "FileDeleted",
      "type": "event"
    },
    {
      "anonymous": false,
      "inputs": [
        {
          "indexed": false,
          "internalType": "uint256",
          "name": "fileId",
          "type": "uint256"
        },
        {
          "indexed": false,
          "internalType": "string",
          "name": "fileName",
          "type": "string"
        },
        {
          "indexed": false,
          "internalType": "string",
          "name": "fileDescription",
          "type": "string"
        },
        {
          "indexed": false,
          "internalType": "uint256",
          "name": "updatedTime",
          "type": "uint256"
        },
        {
          "indexed": true,
          "internalType": "address",
          "name": "updater",
          "type": "address"
        }
      ],
      "name": "FileUpdated",
      "type": "event"
    },
    {
      "anonymous": false,
      "inputs": [
        {
          "indexed": false,
          "internalType": "uint256",
          "name": "fileId",
          "type": "uint256"
        },
        {
          "indexed": false,
          "internalType": "string",
          "name": "fileHash",
          "type": "string"
        },
        {
          "indexed": false,
          "internalType": "uint256",
          "name": "fileSize",
          "type": "uint256"
        },
        {
          "indexed": false,
          "internalType": "string",
          "name": "fileType",
          "type": "string"
        },
        {
          "indexed": false,
          "internalType": "string",
          "name": "fileName",
          "type": "string"
        },
        {
          "indexed": false,
          "internalType": "string",
          "name": "fileDescription",
          "type": "string"
        },
        {
          "indexed": false,
          "internalType": "uint256",
          "name": "uploadTime",
          "type": "uint256"
        },
        {
          "indexed": true,
          "internalType": "address",
          "name": "uploader",
          "type": "address"
        }
      ],
      "name": "FileUploaded",
      "type": "event"
    },
    {
      "inputs": [],
      "name": "fileIndex",
      "outputs": [
        {
          "internalType": "uint256",
          "name": "",
          "type": "uint256"
        }
      ],
      "stateMutability": "view",
      "type": "function",
      "constant": true
    },
    {
      "inputs": [
        {
          "internalType": "uint256",
          "name": "",
          "type": "uint256"
        }
      ],
      "name": "files",
      "outputs": [
        {
          "internalType": "uint256",
          "name": "fileId",
          "type": "uint256"
        },
        {
          "internalType": "string",
          "name": "fileHash",
          "type": "string"
        },
        {
          "internalType": "uint256",
          "name": "fileSize",
          "type": "uint256"
        },
        {
          "internalType": "string",
          "name": "fileType",
          "type": "string"
        },
        {
          "internalType": "string",
          "name": "fileName",
          "type": "string"
        },
        {
          "internalType": "string",
          "name": "fileDescription",
          "type": "string"
        },
        {
          "internalType": "uint256",
          "name": "uploadTime",
          "type": "uint256"
        },
        {
          "internalType": "address",
          "name": "uploader",
          "type": "address"
        }
      ],
      "stateMutability": "view",
      "type": "function",
      "constant": true
    },
    {
      "inputs": [
        {
          "internalType": "string",
          "name": "_fileHash",
          "type": "string"
        },
        {
          "internalType": "uint256",
          "name": "_fileSize",
          "type": "uint256"
        },
        {
          "internalType": "string",
          "name": "_fileType",
          "type": "string"
        },
        {
          "internalType": "string",
          "name": "_fileName",
          "type": "string"
        },
        {
          "internalType": "string",
          "name": "_fileDescription",
          "type": "string"
        }
      ],
      "name": "uploadFile",
      "outputs": [],
      "stateMutability": "nonpayable",
      "type": "function"
    },
    {
      "inputs": [
        {
          "internalType": "uint256",
          "name": "_fileId",
          "type": "uint256"
        },
        {
          "internalType": "string",
          "name": "_fileDescription",
          "type": "string"
        }
      ],
      "name": "updateFile",
      "outputs": [],
      "stateMutability": "nonpayable",
      "type": "function"
    },
    {
      "inputs": [
        {
          "internalType": "uint256",
          "name": "_fileId",
          "type": "uint256"
        }
      ],
      "name": "deleteFile",
      "outputs": [],
      "stateMutability": "nonpayable",
      "type": "function"
    },
    {
      "inputs": [],
      "name": "getTotalFile",
      "outputs": [
        {
          "internalType": "uint256",
          "name": "length",
          "type": "uint256"
        }
      ],
      "stateMutability": "view",
      "type": "function",
      "constant": true
    },
    {
      "inputs": [
        {
          "internalType": "uint256",
          "name": "_fileId",
          "type": "uint256"
        }
      ],
      "name": "fileExist",
      "outputs": [
        {
          "internalType": "bool",
          "name": "success",
          "type": "bool"
        }
      ],
      "stateMutability": "view",
      "type": "function",
      "constant": true
    }
  ],
  "bytecode": "0x6080604052600060015534801561001557600080fd5b506117ef806100256000396000f3fe608060405234801561001057600080fd5b506004361061007d5760003560e01c8063b1cfe1511161005b578063b1cfe15114610183578063c5b42006146101c7578063e82d9d33146101f5578063f4c714b41461047f5761007d565b8063368556071461008257806364069d1c146100a0578063a1b4dce714610165575b600080fd5b61008a61069c565b6040518082815260200191505060405180910390f35b610163600480360360408110156100b657600080fd5b8101908080359060200190929190803590602001906401000000008111156100dd57600080fd5b8201836020820111156100ef57600080fd5b8035906020019184600183028401116401000000008311171561011157600080fd5b91908080601f016020809104026020016040519081016040528093929190818152602001838380828437600081840152601f19601f8201169050808301925050505050505091929192905050506106a8565b005b61016d610961565b6040518082815260200191505060405180910390f35b6101af6004803603602081101561019957600080fd5b8101908080359060200190929190505050610967565b60405180821515815260200191505060405180910390f35b6101f3600480360360208110156101dd57600080fd5b81019080803590602001909291905050506109c4565b005b61047d600480360360a081101561020b57600080fd5b810190808035906020019064010000000081111561022857600080fd5b82018360208201111561023a57600080fd5b8035906020019184600183028401116401000000008311171561025c57600080fd5b91908080601f016020809104026020016040519081016040528093929190818152602001838380828437600081840152601f19601f82011690508083019250505050505050919291929080359060200190929190803590602001906401000000008111156102c957600080fd5b8201836020820111156102db57600080fd5b803590602001918460018302840111640100000000831117156102fd57600080fd5b91908080601f016020809104026020016040519081016040528093929190818152602001838380828437600081840152601f19601f8201169050808301925050505050505091929192908035906020019064010000000081111561036057600080fd5b82018360208201111561037257600080fd5b8035906020019184600183028401116401000000008311171561039457600080fd5b91908080601f016020809104026020016040519081016040528093929190818152602001838380828437600081840152601f19601f820116905080830192505050505050509192919290803590602001906401000000008111156103f757600080fd5b82018360208201111561040957600080fd5b8035906020019184600183028401116401000000008311171561042b57600080fd5b91908080601f016020809104026020016040519081016040528093929190818152602001838380828437600081840152601f19601f820116905080830192505050505050509192919290505050610dd5565b005b6104ab6004803603602081101561049557600080fd5b81019080803590602001909291905050506111e5565b60405180898152602001806020018881526020018060200180602001806020018781526020018673ffffffffffffffffffffffffffffffffffffffff16815260200185810385528c818151815260200191508051906020019080838360005b8381101561052557808201518184015260208101905061050a565b50505050905090810190601f1680156105525780820380516001836020036101000a031916815260200191505b5085810384528a818151815260200191508051906020019080838360005b8381101561058b578082015181840152602081019050610570565b50505050905090810190601f1680156105b85780820380516001836020036101000a031916815260200191505b50858103835289818151815260200191508051906020019080838360005b838110156105f15780820151818401526020810190506105d6565b50505050905090810190601f16801561061e5780820380516001836020036101000a031916815260200191505b50858103825288818151815260200191508051906020019080838360005b8381101561065757808201518184015260208101905061063c565b50505050905090810190601f1680156106845780820380516001836020036101000a031916815260200191505b509c5050505050505050505050505060405180910390f35b60008080549050905090565b60008151116106b657600080fd5b600073ffffffffffffffffffffffffffffffffffffffff163373ffffffffffffffffffffffffffffffffffffffff1614156106f057600080fd5b60006106fb836114bd565b90503373ffffffffffffffffffffffffffffffffffffffff166000828154811061072157fe5b906000526020600020906008020160070160009054906101000a900473ffffffffffffffffffffffffffffffffffffffff1673ffffffffffffffffffffffffffffffffffffffff16146107bf576040517f08c379a000000000000000000000000000000000000000000000000000000000815260040180806020018281038252602a815260200180611790602a913960400191505060405180910390fd5b81600082815481106107cd57fe5b906000526020600020906008020160050190805190602001906107f1929190611582565b503373ffffffffffffffffffffffffffffffffffffffff167f5ee1df19a0ea3926b45851278049eea1c905be755e49ca1f826ed1165576832a846000848154811061083857fe5b906000526020600020906008020160040185426040518085815260200180602001806020018481526020018381038352868181546001816001161561010002031660029004815260200191508054600181600116156101000203166002900480156108e45780601f106108b9576101008083540402835291602001916108e4565b820191906000526020600020905b8154815290600101906020018083116108c757829003601f168201915b5050838103825285818151815260200191508051906020019080838360005b8381101561091e578082015181840152602081019050610903565b50505050905090810190601f16801561094b5780820380516001836020036101000a031916815260200191505b50965050505050505060405180910390a2505050565b60015481565b600080600090505b6000805490508110156109b957826000828154811061098a57fe5b90600052602060002090600802016000015414156109ac5760019150506109bf565b808060010191505061096f565b50600090505b919050565b600073ffffffffffffffffffffffffffffffffffffffff163373ffffffffffffffffffffffffffffffffffffffff1614156109fe57600080fd5b6000610a09826114bd565b90506000808054905090503373ffffffffffffffffffffffffffffffffffffffff1660008381548110610a3857fe5b906000526020600020906008020160070160009054906101000a900473ffffffffffffffffffffffffffffffffffffffff1673ffffffffffffffffffffffffffffffffffffffff1614610ad6576040517f08c379a000000000000000000000000000000000000000000000000000000000815260040180806020018281038252602a815260200180611766602a913960400191505060405180910390fd5b60006001820381548110610ae657fe5b906000526020600020906008020160008381548110610b0157fe5b90600052602060002090600802016000820154816000015560018201816001019080546001816001161561010002031660029004610b40929190611610565b506002820154816002015560038201816003019080546001816001161561010002031660029004610b72929190611610565b5060048201816004019080546001816001161561010002031660029004610b9a929190611610565b5060058201816005019080546001816001161561010002031660029004610bc2929190611610565b50600682015481600601556007820160009054906101000a900473ffffffffffffffffffffffffffffffffffffffff168160070160006101000a81548173ffffffffffffffffffffffffffffffffffffffff021916908373ffffffffffffffffffffffffffffffffffffffff16021790555090505060006001820381548110610c4757fe5b9060005260206000209060080201600080820160009055600182016000610c6e91906116a5565b6002820160009055600382016000610c8691906116a5565b600482016000610c9691906116a5565b600582016000610ca691906116a5565b60068201600090556007820160006101000a81549073ffffffffffffffffffffffffffffffffffffffff021916905550506000805480610ce257fe5b6001900381819060005260206000209060080201600080820160009055600182016000610d0f91906116a5565b6002820160009055600382016000610d2791906116a5565b600482016000610d3791906116a5565b600582016000610d4791906116a5565b60068201600090556007820160006101000a81549073ffffffffffffffffffffffffffffffffffffffff0219169055505090553373ffffffffffffffffffffffffffffffffffffffff167f9f2196b5c7b05735494c25889975de0dfbc332e8c819eae659cbd64eba2ddfcc8442604051808381526020018281526020019250505060405180910390a2505050565b6000855111610de357600080fd5b6000835111610df157600080fd5b6000815111610dff57600080fd5b6000825111610e0d57600080fd5b600073ffffffffffffffffffffffffffffffffffffffff163373ffffffffffffffffffffffffffffffffffffffff161415610e4757600080fd5b60008411610e5457600080fd5b600160008154809291906001019190505550610e6e6116ed565b60405180610100016040528060015481526020018781526020018681526020018581526020018481526020018381526020014281526020013373ffffffffffffffffffffffffffffffffffffffff1681525090506000819080600181540180825580915050600190039060005260206000209060080201600090919091909150600082015181600001556020820151816001019080519060200190610f14929190611582565b50604082015181600201556060820151816003019080519060200190610f3b929190611582565b506080820151816004019080519060200190610f58929190611582565b5060a0820151816005019080519060200190610f75929190611582565b5060c0820151816006015560e08201518160070160006101000a81548173ffffffffffffffffffffffffffffffffffffffff021916908373ffffffffffffffffffffffffffffffffffffffff16021790555050503373ffffffffffffffffffffffffffffffffffffffff167f6e95bbaa37a5fdec42a312e049dea2fe6160ebe659214d3409b4f91f164c2f52600154888888888842604051808881526020018060200187815260200180602001806020018060200186815260200185810385528b818151815260200191508051906020019080838360005b8381101561106857808201518184015260208101905061104d565b50505050905090810190601f1680156110955780820380516001836020036101000a031916815260200191505b50858103845289818151815260200191508051906020019080838360005b838110156110ce5780820151818401526020810190506110b3565b50505050905090810190601f1680156110fb5780820380516001836020036101000a031916815260200191505b50858103835288818151815260200191508051906020019080838360005b83811015611134578082015181840152602081019050611119565b50505050905090810190601f1680156111615780820380516001836020036101000a031916815260200191505b50858103825287818151815260200191508051906020019080838360005b8381101561119a57808201518184015260208101905061117f565b50505050905090810190601f1680156111c75780820380516001836020036101000a031916815260200191505b509b50505050505050505050505060405180910390a2505050505050565b600081815481106111f557600080fd5b9060005260206000209060080201600091509050806000015490806001018054600181600116156101000203166002900480601f0160208091040260200160405190810160405280929190818152602001828054600181600116156101000203166002900480156112a75780601f1061127c576101008083540402835291602001916112a7565b820191906000526020600020905b81548152906001019060200180831161128a57829003601f168201915b505050505090806002015490806003018054600181600116156101000203166002900480601f01602080910402602001604051908101604052809291908181526020018280546001816001161561010002031660029004801561134b5780601f106113205761010080835404028352916020019161134b565b820191906000526020600020905b81548152906001019060200180831161132e57829003601f168201915b505050505090806004018054600181600116156101000203166002900480601f0160208091040260200160405190810160405280929190818152602001828054600181600116156101000203166002900480156113e95780601f106113be576101008083540402835291602001916113e9565b820191906000526020600020905b8154815290600101906020018083116113cc57829003601f168201915b505050505090806005018054600181600116156101000203166002900480601f0160208091040260200160405190810160405280929190818152602001828054600181600116156101000203166002900480156114875780601f1061145c57610100808354040283529160200191611487565b820191906000526020600020905b81548152906001019060200180831161146a57829003601f168201915b5050505050908060060154908060070160009054906101000a900473ffffffffffffffffffffffffffffffffffffffff16905088565b600080600090505b60008054905081101561150e5782600082815481106114e057fe5b9060005260206000209060080201600001541415611501578091505061157d565b80806001019150506114c5565b506040517f08c379a00000000000000000000000000000000000000000000000000000000081526004018080602001828103825260188152602001807f546869732066696c6520646f6573206e6f74206578697374000000000000000081525060200191505060405180910390fd5b919050565b828054600181600116156101000203166002900490600052602060002090601f0160209004810192826115b857600085556115ff565b82601f106115d157805160ff19168380011785556115ff565b828001600101855582156115ff579182015b828111156115fe5782518255916020019190600101906115e3565b5b50905061160c9190611748565b5090565b828054600181600116156101000203166002900490600052602060002090601f0160209004810192826116465760008555611694565b82601f106116575780548555611694565b8280016001018555821561169457600052602060002091601f016020900482015b82811115611693578254825591600101919060010190611678565b5b5090506116a19190611748565b5090565b50805460018160011615610100020316600290046000825580601f106116cb57506116ea565b601f0160209004906000526020600020908101906116e99190611748565b5b50565b60405180610100016040528060008152602001606081526020016000815260200160608152602001606081526020016060815260200160008152602001600073ffffffffffffffffffffffffffffffffffffffff1681525090565b5b80821115611761576000816000905550600101611749565b509056fe596f752063616e206e6f742064656c6574652066696c65732074686174206973206e6f7420796f757273596f752063616e206e6f74207570646174652066696c65732074686174206973206e6f7420796f757273a264697066735822122079078301cfe3b2eb8b9ebaf3b3a2578996e20ec95f4691b9cfbe57e0e31a887764736f6c63430007050033",
  "immutableReferences": {},
  "source": "// SPDX-License-Identifier: GPL-3.0\npragma solidity 0.7.5;\n\ncontract Storage {\n    struct File {\n        uint256 fileId;\n        string fileHash;\n        uint256 fileSize;\n        string fileType;\n        string fileName;\n        string fileDescription;\n        uint256 uploadTime;\n        address uploader;\n    }\n\n    File[] public files;\n\n    uint256 public fileIndex = 0;\n\n    event FileUploaded(\n        uint256 fileId,\n        string fileHash,\n        uint256 fileSize,\n        string fileType,\n        string fileName,\n        string fileDescription,\n        uint256 uploadTime,\n        address indexed uploader\n    );\n\n    event FileDeleted(\n        uint256 fileId,\n        uint256 deleteTime,\n        address indexed deleter\n    );\n\n    event FileUpdated(\n        uint256 fileId,\n        string fileName,\n        string fileDescription,\n        uint256 updatedTime,\n        address indexed updater\n    );\n\n    function uploadFile(\n        string memory _fileHash,\n        uint256 _fileSize,\n        string memory _fileType,\n        string memory _fileName,\n        string memory _fileDescription\n    ) external {\n        require(bytes(_fileHash).length > 0);\n        require(bytes(_fileType).length > 0);\n        require(bytes(_fileDescription).length > 0);\n        require(bytes(_fileName).length > 0);\n        require(msg.sender != address(0));\n        require(_fileSize > 0);\n\n        fileIndex++;\n\n        File memory newFile = File(\n            fileIndex,\n            _fileHash,\n            _fileSize,\n            _fileType,\n            _fileName,\n            _fileDescription,\n            block.timestamp,\n            msg.sender\n        );\n\n        files.push(newFile);\n\n        emit FileUploaded(\n            fileIndex,\n            _fileHash,\n            _fileSize,\n            _fileType,\n            _fileName,\n            _fileDescription,\n            block.timestamp,\n            msg.sender\n        );\n    }\n\n    function updateFile(uint256 _fileId, string memory _fileDescription)\n        external\n    {\n        require(bytes(_fileDescription).length > 0);\n        require(msg.sender != address(0));\n\n        uint256 i = findFile(_fileId);\n\n        if (files[i].uploader != msg.sender)\n            revert(\"You can not update files that is not yours\");\n\n        files[i].fileDescription = _fileDescription;\n\n        emit FileUpdated(\n            _fileId,\n            files[i].fileName,\n            _fileDescription,\n            block.timestamp,\n            msg.sender\n        );\n    }\n\n    function deleteFile(uint256 _fileId) external {\n        require(msg.sender != address(0));\n\n        uint256 i = findFile(_fileId);\n        uint256 totalFileCount = files.length;\n\n        if (files[i].uploader != msg.sender)\n            revert(\"You can not delete files that is not yours\");\n\n        files[i] = files[totalFileCount - 1];\n        delete files[totalFileCount - 1];\n        files.pop();\n\n        emit FileDeleted(_fileId, block.timestamp, msg.sender);\n    }\n\n    function getTotalFile() external view returns (uint256 length) {\n        return files.length;\n    }\n\n    function fileExist(uint256 _fileId) external view returns (bool success) {\n        for (uint256 i = 0; i < files.length; i++) {\n            if (files[i].fileId == _fileId) {\n                return true;\n            }\n        }\n\n        return false;\n    }\n\n    function findFile(uint256 _fileId) internal view returns (uint256) {\n        for (uint256 i = 0; i < files.length; i++) {\n            if (files[i].fileId == _fileId) {\n                return i;\n            }\n        }\n\n        revert(\"This file does not exist\");\n    }\n}\n",
  "sourcePath": "/Users/Eugene/Documents/Dev/web/storage_block/src/contracts/Storage.sol",
  "compiler": {
    "name": "solc",
    "version": "0.7.5+commit.eb77ed08.Emscripten.clang"
  },
  "schemaVersion": "3.4.1",
  "updatedAt": "2021-11-11T13:08:27.925Z",
  "networkType": "ethereum",
  "devdoc": {
    "kind": "dev",
    "methods": {},
    "version": 1
  },
  "userdoc": {
    "kind": "user",
    "methods": {},
    "version": 1
  }
}