{
  "contractName": "Storage",
  "abi": [
    {
      "anonymous": false,
      "inputs": [
        {
          "indexed": false,
          "internalType": "uint256",
          "name": "fileId",
          "type": "uint256"
        },
        {
          "indexed": false,
          "internalType": "uint256",
          "name": "deleteTime",
          "type": "uint256"
        },
        {
          "indexed": true,
          "internalType": "address",
          "name": "deleter",
          "type": "address"
        }
      ],
      "name": "FileDeleted",
      "type": "event"
    },
    {
      "anonymous": false,
      "inputs": [
        {
          "indexed": false,
          "internalType": "uint256",
          "name": "fileId",
          "type": "uint256"
        },
        {
          "indexed": false,
          "internalType": "string",
          "name": "fileName",
          "type": "string"
        },
        {
          "indexed": false,
          "internalType": "string",
          "name": "fileDescription",
          "type": "string"
        },
        {
          "indexed": false,
          "internalType": "uint256",
          "name": "updatedTime",
          "type": "uint256"
        },
        {
          "indexed": true,
          "internalType": "address",
          "name": "updater",
          "type": "address"
        }
      ],
      "name": "FileUpdated",
      "type": "event"
    },
    {
      "anonymous": false,
      "inputs": [
        {
          "indexed": false,
          "internalType": "uint256",
          "name": "fileId",
          "type": "uint256"
        },
        {
          "indexed": false,
          "internalType": "string",
          "name": "fileHash",
          "type": "string"
        },
        {
          "indexed": false,
          "internalType": "uint256",
          "name": "fileSize",
          "type": "uint256"
        },
        {
          "indexed": false,
          "internalType": "string",
          "name": "fileType",
          "type": "string"
        },
        {
          "indexed": false,
          "internalType": "string",
          "name": "fileName",
          "type": "string"
        },
        {
          "indexed": false,
          "internalType": "string",
          "name": "fileDescription",
          "type": "string"
        },
        {
          "indexed": false,
          "internalType": "uint256",
          "name": "uploadTime",
          "type": "uint256"
        },
        {
          "indexed": true,
          "internalType": "address",
          "name": "uploader",
          "type": "address"
        }
      ],
      "name": "FileUploaded",
      "type": "event"
    },
    {
      "inputs": [
        {
          "internalType": "uint256",
          "name": "",
          "type": "uint256"
        }
      ],
      "name": "files",
      "outputs": [
        {
          "internalType": "uint256",
          "name": "fileId",
          "type": "uint256"
        },
        {
          "internalType": "string",
          "name": "fileHash",
          "type": "string"
        },
        {
          "internalType": "uint256",
          "name": "fileSize",
          "type": "uint256"
        },
        {
          "internalType": "string",
          "name": "fileType",
          "type": "string"
        },
        {
          "internalType": "string",
          "name": "fileName",
          "type": "string"
        },
        {
          "internalType": "string",
          "name": "fileDescription",
          "type": "string"
        },
        {
          "internalType": "uint256",
          "name": "uploadTime",
          "type": "uint256"
        },
        {
          "internalType": "address",
          "name": "uploader",
          "type": "address"
        }
      ],
      "stateMutability": "view",
      "type": "function",
      "constant": true
    },
    {
      "inputs": [],
      "name": "totalFileCount",
      "outputs": [
        {
          "internalType": "uint256",
          "name": "",
          "type": "uint256"
        }
      ],
      "stateMutability": "view",
      "type": "function",
      "constant": true
    },
    {
      "inputs": [
        {
          "internalType": "string",
          "name": "_fileHash",
          "type": "string"
        },
        {
          "internalType": "uint256",
          "name": "_fileSize",
          "type": "uint256"
        },
        {
          "internalType": "string",
          "name": "_fileType",
          "type": "string"
        },
        {
          "internalType": "string",
          "name": "_fileName",
          "type": "string"
        },
        {
          "internalType": "string",
          "name": "_fileDescription",
          "type": "string"
        }
      ],
      "name": "uploadFile",
      "outputs": [],
      "stateMutability": "nonpayable",
      "type": "function"
    },
    {
      "inputs": [
        {
          "internalType": "uint256",
          "name": "_fileId",
          "type": "uint256"
        },
        {
          "internalType": "string",
          "name": "_fileDescription",
          "type": "string"
        }
      ],
      "name": "updateFile",
      "outputs": [
        {
          "internalType": "bool",
          "name": "success",
          "type": "bool"
        }
      ],
      "stateMutability": "nonpayable",
      "type": "function"
    },
    {
      "inputs": [
        {
          "internalType": "uint256",
          "name": "_fileId",
          "type": "uint256"
        }
      ],
      "name": "deleteFile",
      "outputs": [
        {
          "internalType": "bool",
          "name": "success",
          "type": "bool"
        }
      ],
      "stateMutability": "nonpayable",
      "type": "function"
    }
  ],
  "bytecode": "0x60806040526000600155600060025534801561001a57600080fd5b506118ed8061002a6000396000f3fe608060405234801561001057600080fd5b50600436106100575760003560e01c806364069d1c1461005c5780637f9d4b4a1461008c578063c5b42006146100aa578063e82d9d33146100da578063f4c714b4146100f6575b600080fd5b610076600480360381019061007191906110cc565b61012d565b6040516100839190611277565b60405180910390f35b610094610386565b6040516100a191906112f2565b60405180910390f35b6100c460048036038101906100bf919061109f565b61038c565b6040516100d19190611277565b60405180910390f35b6100f460048036038101906100ef9190610fb4565b610840565b005b610110600480360381019061010b919061109f565b610ab0565b604051610124989796959493929190611398565b60405180910390f35b60008082511161013c57600080fd5b600073ffffffffffffffffffffffffffffffffffffffff163373ffffffffffffffffffffffffffffffffffffffff16141561017657600080fd5b61017f83610d48565b6101be576040517f08c379a00000000000000000000000000000000000000000000000000000000081526004016101b5906112b2565b60405180910390fd5b60005b60015481101561037a5783600082815481106101e0576101df611756565b5b9060005260206000209060080201600001541415610367573373ffffffffffffffffffffffffffffffffffffffff166000828154811061022357610222611756565b5b906000526020600020906008020160070160009054906101000a900473ffffffffffffffffffffffffffffffffffffffff1673ffffffffffffffffffffffffffffffffffffffff16146102ab576040517f08c379a00000000000000000000000000000000000000000000000000000000081526004016102a2906112d2565b60405180910390fd5b82600082815481106102c0576102bf611756565b5b906000526020600020906008020160050190805190602001906102e4929190610dbf565b503373ffffffffffffffffffffffffffffffffffffffff167f5ee1df19a0ea3926b45851278049eea1c905be755e49ca1f826ed1165576832a856000848154811061033257610331611756565b5b906000526020600020906008020160040186426040516103559493929190611432565b60405180910390a26001915050610380565b808061037290611680565b9150506101c1565b50600090505b92915050565b60015481565b60008073ffffffffffffffffffffffffffffffffffffffff163373ffffffffffffffffffffffffffffffffffffffff1614156103c757600080fd5b6103d082610d48565b61040f576040517f08c379a0000000000000000000000000000000000000000000000000000000008152600401610406906112b2565b60405180910390fd5b60005b60015481101561083557826000828154811061043157610430611756565b5b9060005260206000209060080201600001541415610822573373ffffffffffffffffffffffffffffffffffffffff166000828154811061047457610473611756565b5b906000526020600020906008020160070160009054906101000a900473ffffffffffffffffffffffffffffffffffffffff1673ffffffffffffffffffffffffffffffffffffffff16146104fc576040517f08c379a00000000000000000000000000000000000000000000000000000000081526004016104f390611292565b60405180910390fd5b60006001805461050c9190611535565b8154811061051d5761051c611756565b5b90600052602060002090600802016000828154811061053f5761053e611756565b5b906000526020600020906008020160008201548160000155600182018160010190805461056b9061161d565b610576929190610e45565b506002820154816002015560038201816003019080546105959061161d565b6105a0929190610e45565b5060048201816004019080546105b59061161d565b6105c0929190610e45565b5060058201816005019080546105d59061161d565b6105e0929190610e45565b50600682015481600601556007820160009054906101000a900473ffffffffffffffffffffffffffffffffffffffff168160070160006101000a81548173ffffffffffffffffffffffffffffffffffffffff021916908373ffffffffffffffffffffffffffffffffffffffff1602179055509050506000600180546106659190611535565b8154811061067657610675611756565b5b906000526020600020906008020160008082016000905560018201600061069d9190610ed2565b60028201600090556003820160006106b59190610ed2565b6004820160006106c59190610ed2565b6005820160006106d59190610ed2565b60068201600090556007820160006101000a81549073ffffffffffffffffffffffffffffffffffffffff0219169055505060016000815480929190610719906115f3565b919050555060008054806107305761072f611727565b5b600190038181906000526020600020906008020160008082016000905560018201600061075d9190610ed2565b60028201600090556003820160006107759190610ed2565b6004820160006107859190610ed2565b6005820160006107959190610ed2565b60068201600090556007820160006101000a81549073ffffffffffffffffffffffffffffffffffffffff0219169055505090553373ffffffffffffffffffffffffffffffffffffffff167f9f2196b5c7b05735494c25889975de0dfbc332e8c819eae659cbd64eba2ddfcc8442604051610810929190611485565b60405180910390a2600191505061083b565b808061082d90611680565b915050610412565b50600090505b919050565b600085511161084e57600080fd5b600083511161085c57600080fd5b600081511161086a57600080fd5b600082511161087857600080fd5b600073ffffffffffffffffffffffffffffffffffffffff163373ffffffffffffffffffffffffffffffffffffffff1614156108b257600080fd5b600084116108bf57600080fd5b600260008154809291906108d290611680565b9190505550600060405180610100016040528060025481526020018781526020018681526020018581526020018481526020018381526020014281526020013373ffffffffffffffffffffffffffffffffffffffff168152509050600081908060018154018082558091505060019003906000526020600020906008020160009091909190915060008201518160000155602082015181600101908051906020019061097f929190610dbf565b506040820151816002015560608201518160030190805190602001906109a6929190610dbf565b5060808201518160040190805190602001906109c3929190610dbf565b5060a08201518160050190805190602001906109e0929190610dbf565b5060c0820151816006015560e08201518160070160006101000a81548173ffffffffffffffffffffffffffffffffffffffff021916908373ffffffffffffffffffffffffffffffffffffffff160217905550505060016000815480929190610a4790611680565b91905055503373ffffffffffffffffffffffffffffffffffffffff167f6e95bbaa37a5fdec42a312e049dea2fe6160ebe659214d3409b4f91f164c2f52600254888888888842604051610aa0979695949392919061130d565b60405180910390a2505050505050565b60008181548110610ac057600080fd5b9060005260206000209060080201600091509050806000015490806001018054610ae99061161d565b80601f0160208091040260200160405190810160405280929190818152602001828054610b159061161d565b8015610b625780601f10610b3757610100808354040283529160200191610b62565b820191906000526020600020905b815481529060010190602001808311610b4557829003601f168201915b505050505090806002015490806003018054610b7d9061161d565b80601f0160208091040260200160405190810160405280929190818152602001828054610ba99061161d565b8015610bf65780601f10610bcb57610100808354040283529160200191610bf6565b820191906000526020600020905b815481529060010190602001808311610bd957829003601f168201915b505050505090806004018054610c0b9061161d565b80601f0160208091040260200160405190810160405280929190818152602001828054610c379061161d565b8015610c845780601f10610c5957610100808354040283529160200191610c84565b820191906000526020600020905b815481529060010190602001808311610c6757829003601f168201915b505050505090806005018054610c999061161d565b80601f0160208091040260200160405190810160405280929190818152602001828054610cc59061161d565b8015610d125780601f10610ce757610100808354040283529160200191610d12565b820191906000526020600020905b815481529060010190602001808311610cf557829003601f168201915b5050505050908060060154908060070160009054906101000a900473ffffffffffffffffffffffffffffffffffffffff16905088565b6000806001541415610d5d5760009050610dba565b60005b600154811015610db4578260008281548110610d7f57610d7e611756565b5b9060005260206000209060080201600001541415610da1576001915050610dba565b8080610dac90611680565b915050610d60565b50600090505b919050565b828054610dcb9061161d565b90600052602060002090601f016020900481019282610ded5760008555610e34565b82601f10610e0657805160ff1916838001178555610e34565b82800160010185558215610e34579182015b82811115610e33578251825591602001919060010190610e18565b5b509050610e419190610f12565b5090565b828054610e519061161d565b90600052602060002090601f016020900481019282610e735760008555610ec1565b82601f10610e845780548555610ec1565b82800160010185558215610ec157600052602060002091601f016020900482015b82811115610ec0578254825591600101919060010190610ea5565b5b509050610ece9190610f12565b5090565b508054610ede9061161d565b6000825580601f10610ef05750610f0f565b601f016020900490600052602060002090810190610f0e9190610f12565b5b50565b5b80821115610f2b576000816000905550600101610f13565b5090565b6000610f42610f3d846114d3565b6114ae565b905082815260208101848484011115610f5e57610f5d6117b9565b5b610f698482856115b1565b509392505050565b600082601f830112610f8657610f856117b4565b5b8135610f96848260208601610f2f565b91505092915050565b600081359050610fae816118a0565b92915050565b600080600080600060a08688031215610fd057610fcf6117c3565b5b600086013567ffffffffffffffff811115610fee57610fed6117be565b5b610ffa88828901610f71565b955050602061100b88828901610f9f565b945050604086013567ffffffffffffffff81111561102c5761102b6117be565b5b61103888828901610f71565b935050606086013567ffffffffffffffff811115611059576110586117be565b5b61106588828901610f71565b925050608086013567ffffffffffffffff811115611086576110856117be565b5b61109288828901610f71565b9150509295509295909350565b6000602082840312156110b5576110b46117c3565b5b60006110c384828501610f9f565b91505092915050565b600080604083850312156110e3576110e26117c3565b5b60006110f185828601610f9f565b925050602083013567ffffffffffffffff811115611112576111116117be565b5b61111e85828601610f71565b9150509250929050565b61113181611569565b82525050565b6111408161157b565b82525050565b600061115182611519565b61115b8185611524565b935061116b8185602086016115c0565b611174816117c8565b840191505092915050565b6000815461118c8161161d565b6111968186611524565b945060018216600081146111b157600181146111c3576111f6565b60ff19831686526020860193506111f6565b6111cc85611504565b60005b838110156111ee578154818901526001820191506020810190506111cf565b808801955050505b50505092915050565b600061120c602a83611524565b9150611217826117d9565b604082019050919050565b600061122f601883611524565b915061123a82611828565b602082019050919050565b6000611252602a83611524565b915061125d82611851565b604082019050919050565b611271816115a7565b82525050565b600060208201905061128c6000830184611137565b92915050565b600060208201905081810360008301526112ab816111ff565b9050919050565b600060208201905081810360008301526112cb81611222565b9050919050565b600060208201905081810360008301526112eb81611245565b9050919050565b60006020820190506113076000830184611268565b92915050565b600060e082019050611322600083018a611268565b81810360208301526113348189611146565b90506113436040830188611268565b81810360608301526113558187611146565b905081810360808301526113698186611146565b905081810360a083015261137d8185611146565b905061138c60c0830184611268565b98975050505050505050565b6000610100820190506113ae600083018b611268565b81810360208301526113c0818a611146565b90506113cf6040830189611268565b81810360608301526113e18188611146565b905081810360808301526113f58187611146565b905081810360a08301526114098186611146565b905061141860c0830185611268565b61142560e0830184611128565b9998505050505050505050565b60006080820190506114476000830187611268565b8181036020830152611459818661117f565b9050818103604083015261146d8185611146565b905061147c6060830184611268565b95945050505050565b600060408201905061149a6000830185611268565b6114a76020830184611268565b9392505050565b60006114b86114c9565b90506114c4828261164f565b919050565b6000604051905090565b600067ffffffffffffffff8211156114ee576114ed611785565b5b6114f7826117c8565b9050602081019050919050565b60008190508160005260206000209050919050565b600081519050919050565b600082825260208201905092915050565b6000611540826115a7565b915061154b836115a7565b92508282101561155e5761155d6116c9565b5b828203905092915050565b600061157482611587565b9050919050565b60008115159050919050565b600073ffffffffffffffffffffffffffffffffffffffff82169050919050565b6000819050919050565b82818337600083830152505050565b60005b838110156115de5780820151818401526020810190506115c3565b838111156115ed576000848401525b50505050565b60006115fe826115a7565b91506000821415611612576116116116c9565b5b600182039050919050565b6000600282049050600182168061163557607f821691505b60208210811415611649576116486116f8565b5b50919050565b611658826117c8565b810181811067ffffffffffffffff8211171561167757611676611785565b5b80604052505050565b600061168b826115a7565b91507fffffffffffffffffffffffffffffffffffffffffffffffffffffffffffffffff8214156116be576116bd6116c9565b5b600182019050919050565b7f4e487b7100000000000000000000000000000000000000000000000000000000600052601160045260246000fd5b7f4e487b7100000000000000000000000000000000000000000000000000000000600052602260045260246000fd5b7f4e487b7100000000000000000000000000000000000000000000000000000000600052603160045260246000fd5b7f4e487b7100000000000000000000000000000000000000000000000000000000600052603260045260246000fd5b7f4e487b7100000000000000000000000000000000000000000000000000000000600052604160045260246000fd5b600080fd5b600080fd5b600080fd5b600080fd5b6000601f19601f8301169050919050565b7f596f752063616e206e6f742064656c6574652066696c6573207468617420697360008201527f206e6f7420796f75727300000000000000000000000000000000000000000000602082015250565b7f546869732066696c6520646f6573206e6f742065786973740000000000000000600082015250565b7f596f752063616e206e6f74207570646174652066696c6573207468617420697360008201527f206e6f7420796f75727300000000000000000000000000000000000000000000602082015250565b6118a9816115a7565b81146118b457600080fd5b5056fea2646970667358221220dc35534141d20788ec92136257cfd792234808fdd78d88c4ef36ad1921a1921164736f6c63430008060033",
  "immutableReferences": {},
  "source": "// SPDX-License-Identifier: GPL-3.0\npragma solidity >=0.6.0 <0.9.0;\n\ncontract Storage {\n    struct File {\n        uint256 fileId;\n        string fileHash;\n        uint256 fileSize;\n        string fileType;\n        string fileName;\n        string fileDescription;\n        uint256 uploadTime;\n        address uploader;\n    }\n\n    File[] public files;\n\n    uint256 public totalFileCount = 0;\n\n    uint256 private fileIndex = 0;\n\n    event FileUploaded(\n        uint256 fileId,\n        string fileHash,\n        uint256 fileSize,\n        string fileType,\n        string fileName,\n        string fileDescription,\n        uint256 uploadTime,\n        address indexed uploader\n    );\n\n    event FileDeleted(\n        uint256 fileId,\n        uint256 deleteTime,\n        address indexed deleter\n    );\n\n    event FileUpdated(\n        uint256 fileId,\n        string fileName,\n        string fileDescription,\n        uint256 updatedTime,\n        address indexed updater\n    );\n\n    function uploadFile(\n        string memory _fileHash,\n        uint256 _fileSize,\n        string memory _fileType,\n        string memory _fileName,\n        string memory _fileDescription\n    ) public {\n        require(bytes(_fileHash).length > 0);\n        require(bytes(_fileType).length > 0);\n        require(bytes(_fileDescription).length > 0);\n        require(bytes(_fileName).length > 0);\n        require(msg.sender != address(0));\n        require(_fileSize > 0);\n\n        fileIndex++;\n\n        File memory newFile = File(\n            fileIndex,\n            _fileHash,\n            _fileSize,\n            _fileType,\n            _fileName,\n            _fileDescription,\n            block.timestamp,\n            msg.sender\n        );\n\n        files.push(newFile);\n\n        totalFileCount++;\n\n        emit FileUploaded(\n            fileIndex,\n            _fileHash,\n            _fileSize,\n            _fileType,\n            _fileName,\n            _fileDescription,\n            block.timestamp,\n            msg.sender\n        );\n    }\n\n    function updateFile(uint256 _fileId, string memory _fileDescription)\n        public\n        returns (bool success)\n    {\n        require(bytes(_fileDescription).length > 0);\n        require(msg.sender != address(0));\n        if (!fileExist(_fileId)) revert(\"This file does not exist\");\n\n        for (uint256 i = 0; i < totalFileCount; i++) {\n            if (files[i].fileId == _fileId) {\n                if (files[i].uploader != msg.sender)\n                    revert(\"You can not update files that is not yours\");\n                files[i].fileDescription = _fileDescription;\n\n                emit FileUpdated(\n                    _fileId,\n                    files[i].fileName,\n                    _fileDescription,\n                    block.timestamp,\n                    msg.sender\n                );\n\n                return true;\n            }\n        }\n\n        return false;\n    }\n\n    function deleteFile(uint256 _fileId) public returns (bool success) {\n        require(msg.sender != address(0));\n        if (!fileExist(_fileId)) revert(\"This file does not exist\");\n\n        for (uint256 i = 0; i < totalFileCount; i++) {\n            if (files[i].fileId == _fileId) {\n                if (files[i].uploader != msg.sender)\n                    revert(\"You can not delete files that is not yours\");\n                files[i] = files[totalFileCount - 1];\n                delete files[totalFileCount - 1];\n                totalFileCount--;\n                files.pop();\n                emit FileDeleted(_fileId, block.timestamp, msg.sender);\n                return true;\n            }\n        }\n\n        return false;\n    }\n\n    function getFileCount() private view returns (uint256 count) {\n        return files.length;\n    }\n\n    function fileExist(uint256 _fileId) private view returns (bool success) {\n        if (totalFileCount == 0) return false;\n\n        for (uint256 i = 0; i < totalFileCount; i++) {\n            if (files[i].fileId == _fileId) {\n                return true;\n            }\n        }\n\n        return false;\n    }\n}\n",
  "sourcePath": "/Users/Eugene/Documents/Dev/web/storage_block/src/contracts/Storage.sol",
  "compiler": {
    "name": "solc",
    "version": "0.8.6+commit.11564f7e.Emscripten.clang"
  },
  "schemaVersion": "3.4.1",
  "updatedAt": "2021-08-08T17:59:10.322Z",
  "networkType": "ethereum",
  "devdoc": {
    "kind": "dev",
    "methods": {},
    "version": 1
  },
  "userdoc": {
    "kind": "user",
    "methods": {},
    "version": 1
  }
}