{
  "contractName": "Storage",
  "abi": [
    {
      "anonymous": false,
      "inputs": [
        {
          "indexed": false,
          "internalType": "uint256",
          "name": "fileId",
          "type": "uint256"
        },
        {
          "indexed": false,
          "internalType": "uint256",
          "name": "deleteTime",
          "type": "uint256"
        },
        {
          "indexed": true,
          "internalType": "address",
          "name": "deleter",
          "type": "address"
        }
      ],
      "name": "FileDeleted",
      "type": "event"
    },
    {
      "anonymous": false,
      "inputs": [
        {
          "indexed": false,
          "internalType": "uint256",
          "name": "fileId",
          "type": "uint256"
        },
        {
          "indexed": false,
          "internalType": "string",
          "name": "fileName",
          "type": "string"
        },
        {
          "indexed": false,
          "internalType": "string",
          "name": "fileDescription",
          "type": "string"
        },
        {
          "indexed": false,
          "internalType": "uint256",
          "name": "updatedTime",
          "type": "uint256"
        },
        {
          "indexed": true,
          "internalType": "address",
          "name": "updater",
          "type": "address"
        }
      ],
      "name": "FileUpdated",
      "type": "event"
    },
    {
      "anonymous": false,
      "inputs": [
        {
          "indexed": false,
          "internalType": "uint256",
          "name": "fileId",
          "type": "uint256"
        },
        {
          "indexed": false,
          "internalType": "string",
          "name": "fileHash",
          "type": "string"
        },
        {
          "indexed": false,
          "internalType": "uint256",
          "name": "fileSize",
          "type": "uint256"
        },
        {
          "indexed": false,
          "internalType": "string",
          "name": "fileType",
          "type": "string"
        },
        {
          "indexed": false,
          "internalType": "string",
          "name": "fileName",
          "type": "string"
        },
        {
          "indexed": false,
          "internalType": "string",
          "name": "fileDescription",
          "type": "string"
        },
        {
          "indexed": false,
          "internalType": "uint256",
          "name": "uploadTime",
          "type": "uint256"
        },
        {
          "indexed": true,
          "internalType": "address",
          "name": "uploader",
          "type": "address"
        }
      ],
      "name": "FileUploaded",
      "type": "event"
    },
    {
      "inputs": [],
      "name": "fileIndex",
      "outputs": [
        {
          "internalType": "uint256",
          "name": "",
          "type": "uint256"
        }
      ],
      "stateMutability": "view",
      "type": "function"
    },
    {
      "inputs": [
        {
          "internalType": "uint256",
          "name": "",
          "type": "uint256"
        }
      ],
      "name": "files",
      "outputs": [
        {
          "internalType": "uint256",
          "name": "fileId",
          "type": "uint256"
        },
        {
          "internalType": "string",
          "name": "fileHash",
          "type": "string"
        },
        {
          "internalType": "uint256",
          "name": "fileSize",
          "type": "uint256"
        },
        {
          "internalType": "string",
          "name": "fileType",
          "type": "string"
        },
        {
          "internalType": "string",
          "name": "fileName",
          "type": "string"
        },
        {
          "internalType": "string",
          "name": "fileDescription",
          "type": "string"
        },
        {
          "internalType": "uint256",
          "name": "uploadTime",
          "type": "uint256"
        },
        {
          "internalType": "address",
          "name": "uploader",
          "type": "address"
        }
      ],
      "stateMutability": "view",
      "type": "function"
    },
    {
      "inputs": [],
      "name": "totalFileCount",
      "outputs": [
        {
          "internalType": "uint256",
          "name": "",
          "type": "uint256"
        }
      ],
      "stateMutability": "view",
      "type": "function"
    },
    {
      "inputs": [
        {
          "internalType": "string",
          "name": "_fileHash",
          "type": "string"
        },
        {
          "internalType": "uint256",
          "name": "_fileSize",
          "type": "uint256"
        },
        {
          "internalType": "string",
          "name": "_fileType",
          "type": "string"
        },
        {
          "internalType": "string",
          "name": "_fileName",
          "type": "string"
        },
        {
          "internalType": "string",
          "name": "_fileDescription",
          "type": "string"
        }
      ],
      "name": "uploadFile",
      "outputs": [],
      "stateMutability": "nonpayable",
      "type": "function"
    },
    {
      "inputs": [
        {
          "internalType": "uint256",
          "name": "_fileId",
          "type": "uint256"
        },
        {
          "internalType": "string",
          "name": "_fileDescription",
          "type": "string"
        }
      ],
      "name": "updateFile",
      "outputs": [
        {
          "internalType": "bool",
          "name": "success",
          "type": "bool"
        }
      ],
      "stateMutability": "nonpayable",
      "type": "function"
    },
    {
      "inputs": [
        {
          "internalType": "uint256",
          "name": "_fileId",
          "type": "uint256"
        }
      ],
      "name": "deleteFile",
      "outputs": [
        {
          "internalType": "bool",
          "name": "success",
          "type": "bool"
        }
      ],
      "stateMutability": "nonpayable",
      "type": "function"
    },
    {
      "inputs": [
        {
          "internalType": "uint256",
          "name": "_fileId",
          "type": "uint256"
        }
      ],
      "name": "fileExist",
      "outputs": [
        {
          "internalType": "bool",
          "name": "success",
          "type": "bool"
        }
      ],
      "stateMutability": "view",
      "type": "function"
    }
  ],
  "bytecode": "0x60806040526000600155600060025534801561001a57600080fd5b506119678061002a6000396000f3fe608060405234801561001057600080fd5b506004361061007d5760003560e01c8063b1cfe1511161005b578063b1cfe151146100ee578063c5b420061461011e578063e82d9d331461014e578063f4c714b41461016a5761007d565b806364069d1c146100825780637f9d4b4a146100b2578063a1b4dce7146100d0575b600080fd5b61009c60048036038101906100979190611146565b6101a1565b6040516100a991906112f1565b60405180910390f35b6100ba6103fa565b6040516100c7919061136c565b60405180910390f35b6100d8610400565b6040516100e5919061136c565b60405180910390f35b61010860048036038101906101039190611119565b610406565b60405161011591906112f1565b60405180910390f35b61013860048036038101906101339190611119565b61047d565b60405161014591906112f1565b60405180910390f35b6101686004803603810190610163919061102e565b610931565b005b610184600480360381019061017f9190611119565b610ba1565b604051610198989796959493929190611412565b60405180910390f35b6000808251116101b057600080fd5b600073ffffffffffffffffffffffffffffffffffffffff163373ffffffffffffffffffffffffffffffffffffffff1614156101ea57600080fd5b6101f383610406565b610232576040517f08c379a00000000000000000000000000000000000000000000000000000000081526004016102299061132c565b60405180910390fd5b60005b6001548110156103ee578360008281548110610254576102536117d0565b5b90600052602060002090600802016000015414156103db573373ffffffffffffffffffffffffffffffffffffffff1660008281548110610297576102966117d0565b5b906000526020600020906008020160070160009054906101000a900473ffffffffffffffffffffffffffffffffffffffff1673ffffffffffffffffffffffffffffffffffffffff161461031f576040517f08c379a00000000000000000000000000000000000000000000000000000000081526004016103169061134c565b60405180910390fd5b8260008281548110610334576103336117d0565b5b90600052602060002090600802016005019080519060200190610358929190610e39565b503373ffffffffffffffffffffffffffffffffffffffff167f5ee1df19a0ea3926b45851278049eea1c905be755e49ca1f826ed1165576832a85600084815481106103a6576103a56117d0565b5b906000526020600020906008020160040186426040516103c994939291906114ac565b60405180910390a260019150506103f4565b80806103e6906116fa565b915050610235565b50600090505b92915050565b60015481565b60025481565b600080600154141561041b5760009050610478565b60005b60015481101561047257826000828154811061043d5761043c6117d0565b5b906000526020600020906008020160000154141561045f576001915050610478565b808061046a906116fa565b91505061041e565b50600090505b919050565b60008073ffffffffffffffffffffffffffffffffffffffff163373ffffffffffffffffffffffffffffffffffffffff1614156104b857600080fd5b6104c182610406565b610500576040517f08c379a00000000000000000000000000000000000000000000000000000000081526004016104f79061132c565b60405180910390fd5b60005b600154811015610926578260008281548110610522576105216117d0565b5b9060005260206000209060080201600001541415610913573373ffffffffffffffffffffffffffffffffffffffff1660008281548110610565576105646117d0565b5b906000526020600020906008020160070160009054906101000a900473ffffffffffffffffffffffffffffffffffffffff1673ffffffffffffffffffffffffffffffffffffffff16146105ed576040517f08c379a00000000000000000000000000000000000000000000000000000000081526004016105e49061130c565b60405180910390fd5b6000600180546105fd91906115af565b8154811061060e5761060d6117d0565b5b9060005260206000209060080201600082815481106106305761062f6117d0565b5b906000526020600020906008020160008201548160000155600182018160010190805461065c90611697565b610667929190610ebf565b5060028201548160020155600382018160030190805461068690611697565b610691929190610ebf565b5060048201816004019080546106a690611697565b6106b1929190610ebf565b5060058201816005019080546106c690611697565b6106d1929190610ebf565b50600682015481600601556007820160009054906101000a900473ffffffffffffffffffffffffffffffffffffffff168160070160006101000a81548173ffffffffffffffffffffffffffffffffffffffff021916908373ffffffffffffffffffffffffffffffffffffffff16021790555090505060006001805461075691906115af565b81548110610767576107666117d0565b5b906000526020600020906008020160008082016000905560018201600061078e9190610f4c565b60028201600090556003820160006107a69190610f4c565b6004820160006107b69190610f4c565b6005820160006107c69190610f4c565b60068201600090556007820160006101000a81549073ffffffffffffffffffffffffffffffffffffffff021916905550506001600081548092919061080a9061166d565b91905055506000805480610821576108206117a1565b5b600190038181906000526020600020906008020160008082016000905560018201600061084e9190610f4c565b60028201600090556003820160006108669190610f4c565b6004820160006108769190610f4c565b6005820160006108869190610f4c565b60068201600090556007820160006101000a81549073ffffffffffffffffffffffffffffffffffffffff0219169055505090553373ffffffffffffffffffffffffffffffffffffffff167f9f2196b5c7b05735494c25889975de0dfbc332e8c819eae659cbd64eba2ddfcc84426040516109019291906114ff565b60405180910390a2600191505061092c565b808061091e906116fa565b915050610503565b50600090505b919050565b600085511161093f57600080fd5b600083511161094d57600080fd5b600081511161095b57600080fd5b600082511161096957600080fd5b600073ffffffffffffffffffffffffffffffffffffffff163373ffffffffffffffffffffffffffffffffffffffff1614156109a357600080fd5b600084116109b057600080fd5b600260008154809291906109c3906116fa565b9190505550600060405180610100016040528060025481526020018781526020018681526020018581526020018481526020018381526020014281526020013373ffffffffffffffffffffffffffffffffffffffff1681525090506000819080600181540180825580915050600190039060005260206000209060080201600090919091909150600082015181600001556020820151816001019080519060200190610a70929190610e39565b50604082015181600201556060820151816003019080519060200190610a97929190610e39565b506080820151816004019080519060200190610ab4929190610e39565b5060a0820151816005019080519060200190610ad1929190610e39565b5060c0820151816006015560e08201518160070160006101000a81548173ffffffffffffffffffffffffffffffffffffffff021916908373ffffffffffffffffffffffffffffffffffffffff160217905550505060016000815480929190610b38906116fa565b91905055503373ffffffffffffffffffffffffffffffffffffffff167f6e95bbaa37a5fdec42a312e049dea2fe6160ebe659214d3409b4f91f164c2f52600254888888888842604051610b919796959493929190611387565b60405180910390a2505050505050565b60008181548110610bb157600080fd5b9060005260206000209060080201600091509050806000015490806001018054610bda90611697565b80601f0160208091040260200160405190810160405280929190818152602001828054610c0690611697565b8015610c535780601f10610c2857610100808354040283529160200191610c53565b820191906000526020600020905b815481529060010190602001808311610c3657829003601f168201915b505050505090806002015490806003018054610c6e90611697565b80601f0160208091040260200160405190810160405280929190818152602001828054610c9a90611697565b8015610ce75780601f10610cbc57610100808354040283529160200191610ce7565b820191906000526020600020905b815481529060010190602001808311610cca57829003601f168201915b505050505090806004018054610cfc90611697565b80601f0160208091040260200160405190810160405280929190818152602001828054610d2890611697565b8015610d755780601f10610d4a57610100808354040283529160200191610d75565b820191906000526020600020905b815481529060010190602001808311610d5857829003601f168201915b505050505090806005018054610d8a90611697565b80601f0160208091040260200160405190810160405280929190818152602001828054610db690611697565b8015610e035780601f10610dd857610100808354040283529160200191610e03565b820191906000526020600020905b815481529060010190602001808311610de657829003601f168201915b5050505050908060060154908060070160009054906101000a900473ffffffffffffffffffffffffffffffffffffffff16905088565b828054610e4590611697565b90600052602060002090601f016020900481019282610e675760008555610eae565b82601f10610e8057805160ff1916838001178555610eae565b82800160010185558215610eae579182015b82811115610ead578251825591602001919060010190610e92565b5b509050610ebb9190610f8c565b5090565b828054610ecb90611697565b90600052602060002090601f016020900481019282610eed5760008555610f3b565b82601f10610efe5780548555610f3b565b82800160010185558215610f3b57600052602060002091601f016020900482015b82811115610f3a578254825591600101919060010190610f1f565b5b509050610f489190610f8c565b5090565b508054610f5890611697565b6000825580601f10610f6a5750610f89565b601f016020900490600052602060002090810190610f889190610f8c565b5b50565b5b80821115610fa5576000816000905550600101610f8d565b5090565b6000610fbc610fb78461154d565b611528565b905082815260208101848484011115610fd857610fd7611833565b5b610fe384828561162b565b509392505050565b600082601f83011261100057610fff61182e565b5b8135611010848260208601610fa9565b91505092915050565b6000813590506110288161191a565b92915050565b600080600080600060a0868803121561104a5761104961183d565b5b600086013567ffffffffffffffff81111561106857611067611838565b5b61107488828901610feb565b955050602061108588828901611019565b945050604086013567ffffffffffffffff8111156110a6576110a5611838565b5b6110b288828901610feb565b935050606086013567ffffffffffffffff8111156110d3576110d2611838565b5b6110df88828901610feb565b925050608086013567ffffffffffffffff811115611100576110ff611838565b5b61110c88828901610feb565b9150509295509295909350565b60006020828403121561112f5761112e61183d565b5b600061113d84828501611019565b91505092915050565b6000806040838503121561115d5761115c61183d565b5b600061116b85828601611019565b925050602083013567ffffffffffffffff81111561118c5761118b611838565b5b61119885828601610feb565b9150509250929050565b6111ab816115e3565b82525050565b6111ba816115f5565b82525050565b60006111cb82611593565b6111d5818561159e565b93506111e581856020860161163a565b6111ee81611842565b840191505092915050565b6000815461120681611697565b611210818661159e565b9450600182166000811461122b576001811461123d57611270565b60ff1983168652602086019350611270565b6112468561157e565b60005b8381101561126857815481890152600182019150602081019050611249565b808801955050505b50505092915050565b6000611286602a8361159e565b915061129182611853565b604082019050919050565b60006112a960188361159e565b91506112b4826118a2565b602082019050919050565b60006112cc602a8361159e565b91506112d7826118cb565b604082019050919050565b6112eb81611621565b82525050565b600060208201905061130660008301846111b1565b92915050565b6000602082019050818103600083015261132581611279565b9050919050565b600060208201905081810360008301526113458161129c565b9050919050565b60006020820190508181036000830152611365816112bf565b9050919050565b600060208201905061138160008301846112e2565b92915050565b600060e08201905061139c600083018a6112e2565b81810360208301526113ae81896111c0565b90506113bd60408301886112e2565b81810360608301526113cf81876111c0565b905081810360808301526113e381866111c0565b905081810360a08301526113f781856111c0565b905061140660c08301846112e2565b98975050505050505050565b600061010082019050611428600083018b6112e2565b818103602083015261143a818a6111c0565b905061144960408301896112e2565b818103606083015261145b81886111c0565b9050818103608083015261146f81876111c0565b905081810360a083015261148381866111c0565b905061149260c08301856112e2565b61149f60e08301846111a2565b9998505050505050505050565b60006080820190506114c160008301876112e2565b81810360208301526114d381866111f9565b905081810360408301526114e781856111c0565b90506114f660608301846112e2565b95945050505050565b600060408201905061151460008301856112e2565b61152160208301846112e2565b9392505050565b6000611532611543565b905061153e82826116c9565b919050565b6000604051905090565b600067ffffffffffffffff821115611568576115676117ff565b5b61157182611842565b9050602081019050919050565b60008190508160005260206000209050919050565b600081519050919050565b600082825260208201905092915050565b60006115ba82611621565b91506115c583611621565b9250828210156115d8576115d7611743565b5b828203905092915050565b60006115ee82611601565b9050919050565b60008115159050919050565b600073ffffffffffffffffffffffffffffffffffffffff82169050919050565b6000819050919050565b82818337600083830152505050565b60005b8381101561165857808201518184015260208101905061163d565b83811115611667576000848401525b50505050565b600061167882611621565b9150600082141561168c5761168b611743565b5b600182039050919050565b600060028204905060018216806116af57607f821691505b602082108114156116c3576116c2611772565b5b50919050565b6116d282611842565b810181811067ffffffffffffffff821117156116f1576116f06117ff565b5b80604052505050565b600061170582611621565b91507fffffffffffffffffffffffffffffffffffffffffffffffffffffffffffffffff82141561173857611737611743565b5b600182019050919050565b7f4e487b7100000000000000000000000000000000000000000000000000000000600052601160045260246000fd5b7f4e487b7100000000000000000000000000000000000000000000000000000000600052602260045260246000fd5b7f4e487b7100000000000000000000000000000000000000000000000000000000600052603160045260246000fd5b7f4e487b7100000000000000000000000000000000000000000000000000000000600052603260045260246000fd5b7f4e487b7100000000000000000000000000000000000000000000000000000000600052604160045260246000fd5b600080fd5b600080fd5b600080fd5b600080fd5b6000601f19601f8301169050919050565b7f596f752063616e206e6f742064656c6574652066696c6573207468617420697360008201527f206e6f7420796f75727300000000000000000000000000000000000000000000602082015250565b7f546869732066696c6520646f6573206e6f742065786973740000000000000000600082015250565b7f596f752063616e206e6f74207570646174652066696c6573207468617420697360008201527f206e6f7420796f75727300000000000000000000000000000000000000000000602082015250565b61192381611621565b811461192e57600080fd5b5056fea2646970667358221220edf32fa222beed07a9d597ae6991caa3854bb03c4d44c917bc09431fba17617964736f6c63430008070033",
  "immutableReferences": {},
  "source": "// SPDX-License-Identifier: GPL-3.0\npragma solidity >=0.6.0 <0.9.0;\n\ncontract Storage {\n    struct File {\n        uint256 fileId;\n        string fileHash;\n        uint256 fileSize;\n        string fileType;\n        string fileName;\n        string fileDescription;\n        uint256 uploadTime;\n        address uploader;\n    }\n\n    File[] public files;\n\n    uint256 public totalFileCount = 0;\n\n    uint256 public fileIndex = 0;\n\n    event FileUploaded(\n        uint256 fileId,\n        string fileHash,\n        uint256 fileSize,\n        string fileType,\n        string fileName,\n        string fileDescription,\n        uint256 uploadTime,\n        address indexed uploader\n    );\n\n    event FileDeleted(\n        uint256 fileId,\n        uint256 deleteTime,\n        address indexed deleter\n    );\n\n    event FileUpdated(\n        uint256 fileId,\n        string fileName,\n        string fileDescription,\n        uint256 updatedTime,\n        address indexed updater\n    );\n\n    function uploadFile(\n        string memory _fileHash,\n        uint256 _fileSize,\n        string memory _fileType,\n        string memory _fileName,\n        string memory _fileDescription\n    ) public {\n        require(bytes(_fileHash).length > 0);\n        require(bytes(_fileType).length > 0);\n        require(bytes(_fileDescription).length > 0);\n        require(bytes(_fileName).length > 0);\n        require(msg.sender != address(0));\n        require(_fileSize > 0);\n\n        fileIndex++;\n\n        File memory newFile = File(\n            fileIndex,\n            _fileHash,\n            _fileSize,\n            _fileType,\n            _fileName,\n            _fileDescription,\n            block.timestamp,\n            msg.sender\n        );\n\n        files.push(newFile);\n\n        totalFileCount++;\n\n        emit FileUploaded(\n            fileIndex,\n            _fileHash,\n            _fileSize,\n            _fileType,\n            _fileName,\n            _fileDescription,\n            block.timestamp,\n            msg.sender\n        );\n    }\n\n    function updateFile(uint256 _fileId, string memory _fileDescription)\n        public\n        returns (bool success)\n    {\n        require(bytes(_fileDescription).length > 0);\n        require(msg.sender != address(0));\n        if (!fileExist(_fileId)) revert(\"This file does not exist\");\n\n        for (uint256 i = 0; i < totalFileCount; i++) {\n            if (files[i].fileId == _fileId) {\n                if (files[i].uploader != msg.sender)\n                    revert(\"You can not update files that is not yours\");\n                files[i].fileDescription = _fileDescription;\n\n                emit FileUpdated(\n                    _fileId,\n                    files[i].fileName,\n                    _fileDescription,\n                    block.timestamp,\n                    msg.sender\n                );\n\n                return true;\n            }\n        }\n\n        return false;\n    }\n\n    function deleteFile(uint256 _fileId) public returns (bool success) {\n        require(msg.sender != address(0));\n        if (!fileExist(_fileId)) revert(\"This file does not exist\");\n\n        for (uint256 i = 0; i < totalFileCount; i++) {\n            if (files[i].fileId == _fileId) {\n                if (files[i].uploader != msg.sender)\n                    revert(\"You can not delete files that is not yours\");\n                files[i] = files[totalFileCount - 1];\n                delete files[totalFileCount - 1];\n                totalFileCount--;\n                files.pop();\n                emit FileDeleted(_fileId, block.timestamp, msg.sender);\n                return true;\n            }\n        }\n\n        return false;\n    }\n\n    function getFileCount() private view returns (uint256 count) {\n        return files.length;\n    }\n\n    function fileExist(uint256 _fileId) public view returns (bool success) {\n        if (totalFileCount == 0) return false;\n\n        for (uint256 i = 0; i < totalFileCount; i++) {\n            if (files[i].fileId == _fileId) {\n                return true;\n            }\n        }\n\n        return false;\n    }\n}\n",
  "sourcePath": "/Users/Eugene/Documents/Dev/web/storage_block/src/contracts/Storage.sol",
  "compiler": {
    "name": "solc",
    "version": "0.8.7+commit.e28d00a7.Emscripten.clang"
  },
  "schemaVersion": "3.4.1",
  "updatedAt": "2021-09-08T17:34:16.870Z",
  "devdoc": {
    "kind": "dev",
    "methods": {},
    "version": 1
  },
  "userdoc": {
    "kind": "user",
    "methods": {},
    "version": 1
  }
}